{
  "contractName": "VoteCasting",
  "abi": [
    {
      "anonymous": false,
      "inputs": [
        {
          "indexed": false,
          "internalType": "uint256",
          "name": "electionId",
          "type": "uint256"
        },
        {
          "indexed": false,
          "internalType": "address",
          "name": "voter",
          "type": "address"
        },
        {
          "indexed": false,
          "internalType": "uint256",
          "name": "candidateId",
          "type": "uint256"
        }
      ],
      "name": "VoteCasted",
      "type": "event"
    },
    {
      "constant": true,
      "inputs": [
        {
          "internalType": "uint256",
          "name": "",
          "type": "uint256"
        },
        {
          "internalType": "uint256",
          "name": "",
          "type": "uint256"
        }
      ],
      "name": "candidateVoteCounts",
      "outputs": [
        {
          "internalType": "uint256",
          "name": "",
          "type": "uint256"
        }
      ],
      "payable": false,
      "stateMutability": "view",
      "type": "function"
    },
    {
      "constant": true,
      "inputs": [
        {
          "internalType": "uint256",
          "name": "",
          "type": "uint256"
        },
        {
          "internalType": "address",
          "name": "",
          "type": "address"
        }
      ],
      "name": "electionVotes",
      "outputs": [
        {
          "internalType": "bool",
          "name": "hasVoted",
          "type": "bool"
        },
        {
          "internalType": "uint256",
          "name": "candidateId",
          "type": "uint256"
        }
      ],
      "payable": false,
      "stateMutability": "view",
      "type": "function"
    },
    {
      "constant": false,
      "inputs": [
        {
          "internalType": "uint256",
          "name": "_electionId",
          "type": "uint256"
        },
        {
          "internalType": "uint256",
          "name": "_candidateId",
          "type": "uint256"
        }
      ],
      "name": "castVote",
      "outputs": [],
      "payable": false,
      "stateMutability": "nonpayable",
      "type": "function"
    },
    {
      "constant": true,
      "inputs": [
        {
          "internalType": "uint256",
          "name": "_electionId",
          "type": "uint256"
        },
        {
          "internalType": "uint256",
          "name": "_candidateId",
          "type": "uint256"
        }
      ],
      "name": "getCandidateVoteCount",
      "outputs": [
        {
          "internalType": "uint256",
          "name": "",
          "type": "uint256"
        }
      ],
      "payable": false,
      "stateMutability": "view",
      "type": "function"
    },
    {
      "constant": true,
      "inputs": [
        {
          "internalType": "uint256",
          "name": "_electionId",
          "type": "uint256"
        },
        {
          "internalType": "address",
          "name": "_voter",
          "type": "address"
        }
      ],
      "name": "hasVoted",
      "outputs": [
        {
          "internalType": "bool",
          "name": "",
          "type": "bool"
        }
      ],
      "payable": false,
      "stateMutability": "view",
      "type": "function"
    }
  ],
  "bytecode": "0x608060405234801561001057600080fd5b5061032b806100206000396000f3fe608060405234801561001057600080fd5b50600436106100575760003560e01c80632c0a3f891461005c578063396aabeb1461008157806343859632146100b65780638487ebb0146100f6578063b8398e681461013d575b600080fd5b61007f6004803603604081101561007257600080fd5b5080359060200135610160565b005b6100a46004803603604081101561009757600080fd5b508035906020013561026c565b60408051918252519081900360200190f35b6100e2600480360360408110156100cc57600080fd5b50803590602001356001600160a01b0316610289565b604080519115158252519081900360200190f35b6101226004803603604081101561010c57600080fd5b50803590602001356001600160a01b03166102b2565b60408051921515835260208301919091528051918290030190f35b6100a46004803603604081101561015357600080fd5b50803590602001356102d9565b60008281526020818152604080832033845290915290205460ff16156101cd576040805162461bcd60e51b815260206004820152601e60248201527f416c726561647920766f74656420696e207468697320656c656374696f6e0000604482015290519081900360640190fd5b604080518082018252600180825260208083018581526000878152808352858120338083529084528682209551865460ff1916901515178655915194840194909455868452828252848420868552825292849020805490920190915582518581529081019190915280820183905290517fe7ee74ca1f4bb1b82b14f87794c45b3e59c39e372b862fb97a6316b43355b69e916060908290030190a15050565b600091825260016020908152604080842092845291905290205490565b6000918252602082815260408084206001600160a01b0393909316845291905290205460ff1690565b60006020818152928152604080822090935290815220805460019091015460ff9091169082565b60016020908152600092835260408084209091529082529020548156fea265627a7a723158201f02a861ecd227de9653b8a11e1c5440fc53733ecfb483e488cc8e37dea434e264736f6c63430005100032",
  "source": "// SPDX-License-Identifier: MIT\r\npragma solidity >=0.4.22 <0.9.0;\r\n// pragma solidity ^0.8.0;\r\n\r\ncontract VoteCasting {\r\n    struct Voter {\r\n        bool hasVoted;\r\n        uint256 candidateId;\r\n    }\r\n\r\n    mapping(uint256 => mapping(address => Voter)) public electionVotes; // electionId => voter address => Voter struct\r\n    mapping(uint256 => mapping(uint256 => uint256)) public candidateVoteCounts; // electionId => candidateId => vote count\r\n\r\n    event VoteCasted(uint256 electionId, address voter, uint256 candidateId);\r\n\r\n    function castVote(uint256 _electionId, uint256 _candidateId) public {\r\n        require(!electionVotes[_electionId][msg.sender].hasVoted, \"Already voted in this election\");\r\n\r\n        electionVotes[_electionId][msg.sender] = Voter({\r\n            hasVoted: true,\r\n            candidateId: _candidateId\r\n        });\r\n\r\n        candidateVoteCounts[_electionId][_candidateId] += 1;\r\n        \r\n        emit VoteCasted(_electionId, msg.sender, _candidateId);\r\n    }\r\n\r\n    function getCandidateVoteCount(uint256 _electionId, uint256 _candidateId) public view returns (uint256) {\r\n        return candidateVoteCounts[_electionId][_candidateId];\r\n    }\r\n\r\n    function hasVoted(uint256 _electionId, address _voter) public view returns (bool) {\r\n        return electionVotes[_electionId][_voter].hasVoted;\r\n    }\r\n}\r\n",
  "sourcePath": "C:\\mini projects\\eVoting\\voteapp\\src\\smart-contracts\\contracts\\VoteCasting.sol",
  "compiler": {
    "name": "solc",
    "version": "0.5.16+commit.9c3226ce.Emscripten.clang"
  },
  "schemaVersion": "3.4.16",
  "updatedAt": "2024-11-02T11:14:08.354Z",
  "devdoc": {
    "methods": {}
  },
  "userdoc": {
    "methods": {}
  }
}